{
  "contractName": "Sumsurge",
  "abi": [
    {
      "inputs": [],
      "payable": false,
      "stateMutability": "nonpayable",
      "type": "constructor"
    },
    {
      "constant": true,
      "inputs": [],
      "name": "admin",
      "outputs": [
        {
          "internalType": "address",
          "name": "",
          "type": "address"
        }
      ],
      "payable": false,
      "stateMutability": "view",
      "type": "function"
    },
    {
      "constant": true,
      "inputs": [
        {
          "internalType": "address",
          "name": "",
          "type": "address"
        }
      ],
      "name": "players",
      "outputs": [
        {
          "internalType": "address",
          "name": "id",
          "type": "address"
        },
        {
          "internalType": "uint8",
          "name": "level",
          "type": "uint8"
        },
        {
          "internalType": "uint256",
          "name": "score",
          "type": "uint256"
        },
        {
          "internalType": "uint256",
          "name": "payout",
          "type": "uint256"
        }
      ],
      "payable": false,
      "stateMutability": "view",
      "type": "function"
    },
    {
      "constant": false,
      "inputs": [],
      "name": "resetBoard",
      "outputs": [],
      "payable": false,
      "stateMutability": "nonpayable",
      "type": "function"
    },
    {
      "constant": false,
      "inputs": [],
      "name": "start",
      "outputs": [
        {
          "internalType": "uint8[12]",
          "name": "",
          "type": "uint8[12]"
        }
      ],
      "payable": false,
      "stateMutability": "nonpayable",
      "type": "function"
    },
    {
      "constant": false,
      "inputs": [
        {
          "internalType": "uint256",
          "name": "_score",
          "type": "uint256"
        }
      ],
      "name": "nextLevel",
      "outputs": [
        {
          "internalType": "uint8[12]",
          "name": "",
          "type": "uint8[12]"
        }
      ],
      "payable": false,
      "stateMutability": "nonpayable",
      "type": "function"
    },
    {
      "constant": true,
      "inputs": [],
      "name": "getBoard",
      "outputs": [
        {
          "internalType": "uint8[12]",
          "name": "",
          "type": "uint8[12]"
        }
      ],
      "payable": false,
      "stateMutability": "view",
      "type": "function"
    },
    {
      "constant": false,
      "inputs": [],
      "name": "payOut",
      "outputs": [],
      "payable": true,
      "stateMutability": "payable",
      "type": "function"
    }
  ],
  "bytecode": "0x608060405273471ece3750da237f93b8e339c536989b8978a438600260006101000a81548173ffffffffffffffffffffffffffffffffffffffff021916908373ffffffffffffffffffffffffffffffffffffffff16021790555034801561006557600080fd5b50336000806101000a81548173ffffffffffffffffffffffffffffffffffffffff021916908373ffffffffffffffffffffffffffffffffffffffff160217905550600260009054906101000a900473ffffffffffffffffffffffffffffffffffffffff16600160006101000a81548173ffffffffffffffffffffffffffffffffffffffff021916908373ffffffffffffffffffffffffffffffffffffffff160217905550611513806101186000396000f3fe6080604052600436106100705760003560e01c8063be9a65551161004e578063be9a655514610156578063c2052403146101a9578063e2eb41ff146101b3578063f851a4401461025f57610070565b80633264a34b1461007557806341fffe66146100c8578063455a29391461013f575b600080fd5b34801561008157600080fd5b5061008a6102b6565b6040518082600c60200280838360005b838110156100b557808201518184015260208101905061009a565b5050505090500191505060405180910390f35b3480156100d457600080fd5b50610101600480360360208110156100eb57600080fd5b8101908080359060200190929190505050610367565b6040518082600c60200280838360005b8381101561012c578082015181840152602081019050610111565b5050505090500191505060405180910390f35b34801561014b57600080fd5b50610154610600565b005b34801561016257600080fd5b5061016b61068a565b6040518082600c60200280838360005b8381101561019657808201518184015260208101905061017b565b5050505090500191505060405180910390f35b6101b1610868565b005b3480156101bf57600080fd5b50610202600480360360208110156101d657600080fd5b81019080803573ffffffffffffffffffffffffffffffffffffffff169060200190929190505050610d79565b604051808573ffffffffffffffffffffffffffffffffffffffff1673ffffffffffffffffffffffffffffffffffffffff1681526020018460ff1660ff16815260200183815260200182815260200194505050505060405180910390f35b34801561026b57600080fd5b50610274610dd6565b604051808273ffffffffffffffffffffffffffffffffffffffff1673ffffffffffffffffffffffffffffffffffffffff16815260200191505060405180910390f35b6102be6112df565b600360003373ffffffffffffffffffffffffffffffffffffffff1673ffffffffffffffffffffffffffffffffffffffff168152602001908152602001600020600301600c806020026040519081016040528092919082600c801561035d576020028201916000905b82829054906101000a900460ff1660ff16815260200190600101906020826000010492830192600103820291508084116103265790505b5050505050905090565b61036f6112df565b81600360003373ffffffffffffffffffffffffffffffffffffffff1673ffffffffffffffffffffffffffffffffffffffff16815260200190815260200160002060010160008282540192505081905550600360003373ffffffffffffffffffffffffffffffffffffffff1673ffffffffffffffffffffffffffffffffffffffff168152602001908152602001600020600001601481819054906101000a900460ff168092919060010191906101000a81548160ff021916908360ff16021790555050610439610600565b60038060003373ffffffffffffffffffffffffffffffffffffffff1673ffffffffffffffffffffffffffffffffffffffff16815260200190815260200160002060000160149054906101000a900460ff1660ff1611156104fa5761049c42610dfb565b600360003373ffffffffffffffffffffffffffffffffffffffff1673ffffffffffffffffffffffffffffffffffffffff16815260200190815260200160002060030190600c6104ec929190611302565b506104f5610ef3565b610555565b61050342610dfb565b600360003373ffffffffffffffffffffffffffffffffffffffff1673ffffffffffffffffffffffffffffffffffffffff16815260200190815260200160002060030190600c610553929190611302565b505b600360003373ffffffffffffffffffffffffffffffffffffffff1673ffffffffffffffffffffffffffffffffffffffff168152602001908152602001600020600301600c806020026040519081016040528092919082600c80156105f4576020028201916000905b82829054906101000a900460ff1660ff16815260200190600101906020826000010492830192600103820291508084116105bd5790505b50505050509050919050565b60008090505b600c8160ff16101561068757600360003373ffffffffffffffffffffffffffffffffffffffff1673ffffffffffffffffffffffffffffffffffffffff1681526020019081526020016000206003018160ff16600c811061066257fe5b602091828204019190066101000a81549060ff02191690558080600101915050610606565b50565b6106926112df565b61069a61139c565b6040518060a001604052803373ffffffffffffffffffffffffffffffffffffffff168152602001600060ff16815260200160008152602001600081526020016106e242610dfb565b815250905080600360003373ffffffffffffffffffffffffffffffffffffffff1673ffffffffffffffffffffffffffffffffffffffff16815260200190815260200160002060008201518160000160006101000a81548173ffffffffffffffffffffffffffffffffffffffff021916908373ffffffffffffffffffffffffffffffffffffffff16021790555060208201518160000160146101000a81548160ff021916908360ff160217905550604082015181600101556060820151816002015560808201518160030190600c6107ba9291906113ea565b50905050600360003373ffffffffffffffffffffffffffffffffffffffff1673ffffffffffffffffffffffffffffffffffffffff168152602001908152602001600020600301600c806020026040519081016040528092919082600c801561085d576020028201916000905b82829054906101000a900460ff1660ff16815260200190600101906020826000010492830192600103820291508084116108265790505b505050505091505090565b6000600360003373ffffffffffffffffffffffffffffffffffffffff1673ffffffffffffffffffffffffffffffffffffffff1681526020019081526020016000206001015411610920576040517f08c379a00000000000000000000000000000000000000000000000000000000081526004018080602001828103825260098152602001807f4e6f207061796f7574000000000000000000000000000000000000000000000081525060200191505060405180910390fd5b6103e8600360003373ffffffffffffffffffffffffffffffffffffffff1673ffffffffffffffffffffffffffffffffffffffff168152602001908152602001600020600101548161096d57fe5b04600360003373ffffffffffffffffffffffffffffffffffffffff1673ffffffffffffffffffffffffffffffffffffffff16815260200190815260200160002060020181905550600160009054906101000a900473ffffffffffffffffffffffffffffffffffffffff1673ffffffffffffffffffffffffffffffffffffffff1663095ea7b36000809054906101000a900473ffffffffffffffffffffffffffffffffffffffff16600360003373ffffffffffffffffffffffffffffffffffffffff1673ffffffffffffffffffffffffffffffffffffffff168152602001908152602001600020600201546040518363ffffffff1660e01b8152600401808373ffffffffffffffffffffffffffffffffffffffff1673ffffffffffffffffffffffffffffffffffffffff16815260200182815260200192505050602060405180830381600087803b158015610ac057600080fd5b505af1158015610ad4573d6000803e3d6000fd5b505050506040513d6020811015610aea57600080fd5b810190808051906020019092919050505050600160009054906101000a900473ffffffffffffffffffffffffffffffffffffffff1673ffffffffffffffffffffffffffffffffffffffff166323b872dd6000809054906101000a900473ffffffffffffffffffffffffffffffffffffffff16600360003373ffffffffffffffffffffffffffffffffffffffff1673ffffffffffffffffffffffffffffffffffffffff16815260200190815260200160002060000160009054906101000a900473ffffffffffffffffffffffffffffffffffffffff16600360003373ffffffffffffffffffffffffffffffffffffffff1673ffffffffffffffffffffffffffffffffffffffff168152602001908152602001600020600201546040518463ffffffff1660e01b8152600401808473ffffffffffffffffffffffffffffffffffffffff1673ffffffffffffffffffffffffffffffffffffffff1681526020018373ffffffffffffffffffffffffffffffffffffffff1673ffffffffffffffffffffffffffffffffffffffff1681526020018281526020019350505050602060405180830381600087803b158015610c9e57600080fd5b505af1158015610cb2573d6000803e3d6000fd5b505050506040513d6020811015610cc857600080fd5b810190808051906020019092919050505050600360003373ffffffffffffffffffffffffffffffffffffffff1673ffffffffffffffffffffffffffffffffffffffff168152602001908152602001600020600080820160006101000a81549073ffffffffffffffffffffffffffffffffffffffff02191690556000820160146101000a81549060ff021916905560018201600090556002820160009055600382016000610d759190611484565b5050565b60036020528060005260406000206000915090508060000160009054906101000a900473ffffffffffffffffffffffffffffffffffffffff16908060000160149054906101000a900460ff16908060010154908060020154905084565b6000809054906101000a900473ffffffffffffffffffffffffffffffffffffffff1681565b610e036112df565b6000610e0d6112df565b8360405160200180828152602001807f31323132000000000000000000000000000000000000000000000000000000008152506004019150506040516020818303038152906040528051906020012060001c915060008090505b600c8160ff161015610ee857600160098483604051602001808381526020018260ff1660ff1660f81b8152600101925050506040516020818303038152906040528051906020012060001c81610eb957fe5b0601828260ff16600c8110610eca57fe5b602002019060ff16908160ff16815250508080600101915050610e67565b508092505050919050565b6000600360003373ffffffffffffffffffffffffffffffffffffffff1673ffffffffffffffffffffffffffffffffffffffff16815260200190815260200160002060000160149054906101000a900460ff1660ff1690506000600382118015610f5c5750600682105b15610ff7576000600a610f6f60056111bf565b60ff160190506000610f81600c6111bf565b60ff16905081600360003373ffffffffffffffffffffffffffffffffffffffff1673ffffffffffffffffffffffffffffffffffffffff16815260200190815260200160002060030182600c8110610fd457fe5b602091828204019190066101000a81548160ff021916908360ff16021790555050505b600682101580156110085750600882105b156110e05760008090505b60028110156110de576000600a61102a60056111bf565b60ff16019050600061103c600c6111bf565b60ff1690505b8381141561105e57611054600c6111bf565b60ff169050611042565b80935081600360003373ffffffffffffffffffffffffffffffffffffffff1673ffffffffffffffffffffffffffffffffffffffff16815260200190815260200160002060030182600c81106110af57fe5b602091828204019190066101000a81548160ff021916908360ff16021790555050508080600101915050611013565b505b600882106111bb5760008090505b60038110156111b9576000600a61110560056111bf565b60ff160190506000611117600c6111bf565b60ff1690505b838114156111395761112f600c6111bf565b60ff16905061111d565b80935081600360003373ffffffffffffffffffffffffffffffffffffffff1673ffffffffffffffffffffffffffffffffffffffff16815260200190815260200160002060030182600c811061118a57fe5b602091828204019190066101000a81548160ff021916908360ff160217905550505080806001019150506110ee565b505b5050565b600080600042600360003373ffffffffffffffffffffffffffffffffffffffff1673ffffffffffffffffffffffffffffffffffffffff1681526020019081526020016000206001015460405160200180838152602001828152602001925050506040516020818303038152906040528051906020012060001c905060018460ff1682600360003373ffffffffffffffffffffffffffffffffffffffff1673ffffffffffffffffffffffffffffffffffffffff16815260200190815260200160002060000160149054906101000a900460ff16604051602001808381526020018260ff1660ff1660f81b8152600101925050506040516020818303038152906040528051906020012060001c816112d157fe5b060191508192505050919050565b604051806101800160405280600c90602082028038833980820191505090505090565b82600c601f0160209004810192821561138b5791602002820160005b8382111561135c57835183826101000a81548160ff021916908360ff160217905550926020019260010160208160000104928301926001030261131e565b80156113895782816101000a81549060ff021916905560010160208160000104928301926001030261135c565b505b509050611398919061148b565b5090565b6040518060a00160405280600073ffffffffffffffffffffffffffffffffffffffff168152602001600060ff16815260200160008152602001600081526020016113e46114bb565b81525090565b82600c601f016020900481019282156114735791602002820160005b8382111561144457835183826101000a81548160ff021916908360ff1602179055509260200192600101602081600001049283019260010302611406565b80156114715782816101000a81549060ff0219169055600101602081600001049283019260010302611444565b505b509050611480919061148b565b5090565b5060009055565b6114b891905b808211156114b457600081816101000a81549060ff021916905550600101611491565b5090565b90565b604051806101800160405280600c9060208202803883398082019150509050509056fea265627a7a7231582025f64b403119ba4945268f89a3c535dbc7cf8b8f8fd9421c305bb35832f80ca164736f6c63430005100032",
  "source": "// SPDX-License-Identifier: UNLICENSED\npragma solidity ^0.5.0;\nimport \"./IERC20.sol\";\n\ncontract Sumsurge {\n    address public admin;\n    IERC20 private celoToken;\n    address internal _celoTokenAddress =\n        0x471EcE3750Da237f93B8E339c536989b8978a438;\n    struct Player {\n        address id;\n        uint8 level;\n        uint score;\n        uint payout;\n        uint8[12] board;\n    }\n\n    mapping(address => Player) public players;\n\n    constructor() public {\n        admin = msg.sender;\n        celoToken = IERC20(_celoTokenAddress);\n    }\n    // block.difficulty\n    function randomBoard(\n        uint256 _timestamp\n    ) internal returns (uint8[12] memory) {\n        uint256 seed;\n        uint8[12] memory board;\n\n        seed = uint256(keccak256(abi.encodePacked(_timestamp, \"1212\")));\n        for (uint8 i = 0; i < 12; i++) {\n            board[i] = uint8(\n                (uint256(keccak256(abi.encodePacked(seed, i))) % 9) + 1\n            );\n        }\n        return (board);\n    }\n    function resetBoard() public {\n        for (uint8 i = 0; i < 12; i++) {\n            delete players[msg.sender].board[i];\n        }\n    }\n\n    function start() external returns (uint8[12] memory) {\n        Player memory newPlayer = Player({\n            id: msg.sender,\n            level: 0,\n            score: 0,\n            payout: 0,\n            board: randomBoard(block.timestamp)\n        });\n        players[msg.sender] = newPlayer;\n        return (players[msg.sender].board);\n    }\n\n    function nextLevel(uint _score) external returns (uint8[12] memory) {\n        players[msg.sender].score += _score;\n        players[msg.sender].level++;\n        resetBoard();\n        if (players[msg.sender].level > 3) {\n            players[msg.sender].board = randomBoard(block.timestamp);\n            remakeBoard();\n        } else {\n            players[msg.sender].board = randomBoard(block.timestamp);\n        }\n        return (players[msg.sender].board);\n    }\n\n    function ranNum(uint8 _i) internal view returns (uint8) {\n        uint8 num;\n        uint256 seed;\n\n        seed = uint256(\n            keccak256(\n                abi.encodePacked(block.timestamp, players[msg.sender].score)\n            )\n        );\n        num = uint8(\n            (uint256(\n                keccak256(abi.encodePacked(seed, players[msg.sender].level))\n            ) % _i) + 1\n        );\n        return (num);\n    }\n    // Function to randomly assign numbers from [10, 11, 12, 13, 14, 15]\n    function remakeBoard() internal {\n        uint256 diff = uint256(players[msg.sender].level);\n        uint256 tmp;\n\n        if (diff > 3 && diff < 6) {\n            uint256 opSel = uint256(ranNum(5)) + 10; // Choose from [10, 11, 12, 13, 14, 15]\n            uint256 boardSel = uint256(ranNum(12));\n            players[msg.sender].board[boardSel] = uint8(opSel);\n        }\n        if (diff >= 6 && diff < 8) {\n            for (uint256 i = 0; i < 2; i++) {\n                uint256 opSel = uint256(ranNum(5)) + 10;\n                uint256 boardSel = uint256(ranNum(12));\n                while (boardSel == tmp) {\n                    boardSel = uint256(ranNum(12));\n                }\n                tmp = boardSel;\n                players[msg.sender].board[boardSel] = uint8(opSel);\n            }\n        }\n        if (diff >= 8) {\n            for (uint256 i = 0; i < 3; i++) {\n                uint256 opSel = uint256(ranNum(5)) + 10;\n                uint256 boardSel = uint256(ranNum(12));\n                while (boardSel == tmp) {\n                    boardSel = uint256(ranNum(12));\n                }\n                tmp = boardSel;\n                players[msg.sender].board[boardSel] = uint8(opSel);\n            }\n        }\n    }\n\n    function getBoard() public view returns (uint8[12] memory) {\n        return (players[msg.sender].board);\n    }\n    function payOut() public payable {\n        require(players[msg.sender].score > 0, \"No payout\");\n        players[msg.sender].payout = players[msg.sender].score / 1000;\n        celoToken.approve(admin, players[msg.sender].payout);\n        celoToken.transferFrom(\n            admin,\n            players[msg.sender].id,\n            players[msg.sender].payout\n        );\n        delete players[msg.sender];\n    }\n}\n",
  "sourcePath": "/home/maso/lin_dir/work/dapp/celo/celoCput/sumSurge/sumSurgeDApp/contracts/Sumserge.sol",
  "compiler": {
    "name": "solc",
    "version": "0.5.16+commit.9c3226ce.Emscripten.clang"
  },
  "schemaVersion": "3.4.16",
  "updatedAt": "2024-04-24T09:14:42.319Z",
  "devdoc": {
    "methods": {}
  },
  "userdoc": {
    "methods": {}
  }
}